:020000040800F2
:1000000000000820451B0008C1050008CF050008B6
:10001000D5050008DB050008E10500080000000028
:10002000000000000000000000000000E7050008DC
:10003000F50500080000000003060008110600088E
:10004000951B0008951B0008951B0008951B0008D0
:10005000951B0008951B0008951B0008951B0008C0
:10006000951B0008951B0008951B0008951B0008B0
:10007000951B0008951B0008951B0008951B0008A0
:10008000951B0008951B0008951B0008951B000890
:10009000951B0008951B0008951B0008951B000880
:1000A000951B000881100008951B0008951B00088F
:1000B000951B0008951B0008951B0008951B000860
:1000C000951B0008951B0008951B0008951B000850
:1000D000951B000821080008951B0008951B0008C7
:1000E000951B0008951B0008951B0008951B000830
:1000F000951B0008951B0008951B0008951B000820
:10010000951B0008951B0008951B0008951B00080F
:10011000951B0008951B0008951B0008951B0008FF
:10012000951B0008951B0008951B0008951B0008EF
:10013000951B0008951B0008951B0008951B0008DF
:10014000951B0008951B0008951B0008951B0008CF
:10015000951B0008951B0008951B0008951B0008BF
:10016000951B0008951B0008951B0008951B0008AF
:10017000951B0008951B0008951B00080000000057
:10018000951B0008951B0008951B0008951B00088F
:10019000951B0008951B0008951B0008951B00087F
:1001A000951B0008951B0008951B0008951B00086F
:1001B000951B0008951B0008951B0008951B00085F
:1001C000951B0008951B000800000000951B000807
:1001D000951B0008951B0008951B0008951B00083F
:1001E000951B0008951B0008951B0008951B00082F
:0801F000951B0008951B000897
:1001F80010B5054C237833B9044B13B10448AFF359
:1002080000800123237010BD0C00022000000000B4
:1002180054E9000808B5034B1BB103490348AFF381
:10022800008008BD000000001000022054E900080A
:1002380080B400AF154A154BD3F8883043F47003E7
:10024800C2F88830124A124B1B6843F0010313604E
:100258000F4B00229A600E490D4B1A680D4B134044
:100268000B600B4B0C4A5A60094A094B1B6823F474
:1002780080231360064B0022DA60044B4FF00062C3
:100288009A6000BFBD465DF8047B704700ED00E052
:1002980000380240FFFFF6FE1030002480B487B01B
:1002A80000AF00233B6100237B610223FB60002336
:1002B800BB6002237B60314B9B6803F00C033B61FE
:1002C8003B69042B07D0082B09D0002B3DD12C4BC0
:1002D8002C4A1A603DE02A4B2B4A1A6039E0274B1A
:1002E8005B689B0D03F00103BB60244B5B6803F064
:1002F8003F037B60BB68002B0CD0234A7B68B2FBB2
:10030800F3F31E4A52689209C2F3080202FB03F390
:100318007B610BE01B4A7B68B2FBF3F3174A526818
:100328009209C2F3080202FB03F37B61134B5B687B
:100338001B0C03F0030301335B00FB607A69FB6865
:10034800B2FBF3F30E4A136003E00D4B0D4A1A603B
:1003580000BF0A4B9B681B0903F00F030B4AD35CD1
:100368003B61074B1A683B6922FA03F3044A13609E
:1003780000BF1C37BD465DF8047B7047003802405B
:10038800040002200024F40040787D0170E9000890
:1003980080B400AFBFF34F8FBFF36F8F0B4B0022BA
:1003A800C3F85022BFF34F8FBFF36F8F074A074B35
:1003B8005B6943F400335361BFF34F8FBFF36F8F13
:1003C80000BFBD465DF8047B704700BF00ED00E04C
:1003D80080B485B000AF1D4B0022C3F88420BFF362
:1003E8004F8F1A4BD3F880307B607B685B0BC3F36D
:1003F8000E03FB607B68DB08C3F30903BB6013498A
:10040800FB685A0143F6E0731340BA689207134336
:10041800C1F86032BB685A1EBA60002BEFD1FB6886
:100428005A1EFA60002BE5D1BFF34F8F074A074BDE
:100438005B6943F480335361BFF34F8FBFF36F8F12
:1004480000BF1437BD465DF8047B704700ED00E03F
:1004580080B500AF054A054B1B6B43F4805313630B
:10046800FFF796FFFFF7B4FF00BF80BD00380240DA
:1004780080B588B002AFF860B9607A603B6000234D
:100488007B6100233B61174B00221A713B68154AB8
:100498005362144B10221A613A6A7968114806F0BF
:1004A8003FF903467B617B69002B16D1BA6807F1D7
:1004B800100300937B6AF9680A4806F034F903468A
:1004C8007B617B69002B08D107F110031A46796A12
:1004D800044806F039F903467B617B6918461837EA
:1004E800BD4680BD2C02022080B588B002AFF860FE
:1004F800B9607A603B6000237B6100233B61174B46
:1005080000221A713B68154A5362144B10221A6173
:100518003A6A7968114806F023F903467B617B69DA
:10052800002B16D1BA6807F1100300937B6AF968AB
:100538000A4806F018F903467B617B69002B08D14D
:1005480007F110031A46796A044806F01DF90346B4
:100558007B617B6918461837BD4680BD2C02022096
:1005680080B485B000AFF860B9601346FB800DE039
:10057800FB681A78BB681B789A4201D000230BE00D
:10058800FB680133FB60BB680133BB60FB885A1E04
:10059800FA80002BECD1012318461437BD465DF8CC
:1005A800047B704780B500AF00220021014800F0AD
:1005B800EFFAF9E7C0C62D0080B400AF00BFBD4612
:1005C8005DF8047B704780B400AFFEE780B400AFED
:1005D800FEE780B400AFFEE780B400AFFEE780B46A
:1005E80000AF00BFBD465DF8047B704780B400AF24
:1005F80000BFBD465DF8047B704780B400AF00BF04
:10060800BD465DF8047B704780B400AF00BFBD46AF
:100618005DF8047B704700BF80B582B002AF00F080
:100628005BFB4FF4E131012000F07AF80021012052
:1006380000F054FAFFF70CFF144B1B78002BFBD08B
:10064800134B0193134B00931023134A7C21134837
:10065800FFF70EFF0E4800F023F9114800F058F993
:10066800104B01930B4B009310230B4A4FF400716E
:100678000748FFF739FF0B4800F012F9084800F067
:1006880047F9024B00221A70D6E700BFC4050220C2
:1006980028000220C8E90008E8E90008440402200C
:1006A80008EA0008C805022080B483B000AF0346FA
:1006B800FB7197F90730002B0BDB094997F90730D5
:1006C8005B09FA7902F01F02012000FA02F241F8F0
:1006D800232000BF0C37BD465DF8047B704700BF80
:1006E80000E100E080B483B000AF0346FB7197F9E6
:1006F8000730002B0CDB094997F907305B09FA79B9
:1007080002F01F02012000FA02F2603341F82320B0
:1007180000BF0C37BD465DF8047B704700E100E080
:1007280080B584B000AF03463960FB71354B1B6858
:10073800354A934208D9354A344BD3F8903043F0C0
:100748000103C2F8903007E0304A304BD3F89030BC
:1007580023F00103C2F890303B685A08294B1B6804
:100768001344FB60FA683B68B2FBF3F3FB60274A6B
:10077800264B1B6B43F00A031363244A234B5B6C21
:1007880043F010035364224A214B1B6843F0204373
:1007980013601F4A1E4B5B6A43F0806353621C4A16
:1007A8001B4B5B6A43F0804353621A4AFB68D36071
:1007B800184A184B1B6843F008031360154A154B79
:1007C8001B6843F004031360124A124B1B6843F082
:1007D80020031360FB79012B06D10E4A0D4B1B68D1
:1007E80043F00103136005E00A4A0A4B1B6823F033
:1007F800010313602520FFF757FF00BF1037BD46E0
:1008080080BD00BF080002200024F4000038024028
:10081800000402400010014080B500AF114B5B6A34
:100828007B2B03D1104800F0F5F816E00D4B5B6AFE
:100838005B2B03D10D4800F0AFF80EE00B4800F039
:1008480084F8084A074B9B6943F008039361054AFB
:10085800044B1B6A43F0080313622520FFF742FF8D
:1008680000BF80BD00100140C004022044040220E3
:1008780080B483B000AF0346FB7100BF074BDB6950
:1008880003F04003002BF9D0044AFB79936200BFC0
:100898000C37BD465DF8047B704700BF001001406F
:1008A80080B584B000AF78600023FB810AE0FB8943
:1008B8005A1CFA811A467B6813441B78DBB2184627
:1008C800FFF7D6FFFB897A6813441B78DBB2002B4D
:1008D800EDD100BF1037BD4680BD80B584B000AFF4
:1008E80078600B467B800023FB8109E0FB897A68EE
:1008F80013441B781846FFF7BBFFFB890133FB81C4
:10090800FA897B889A42F1D300BF1037BD4680BD73
:1009180080B584B000AF78600023FB810AE0FB89D2
:100928005A1CFA811A467B6813441B78DBB21846B6
:10093800FFF79EFFFB897A6813441B78DBB2002B14
:10094800EDD100BF1037BD4680BD80B483B000AF85
:1009580078600E4B1B78DBB25A1CD1B20B4A11706F
:100968001A467B6813440A4A526AD2B21A70084A75
:10097800074B9B6943F008039361064B01221A70E9
:1009880000BF0C37BD465DF8047B70473704022072
:10099800001001403404022080B485B000AF7860B4
:1009A8000023FB730023BB81184BDB6903F0200392
:1009B800002B16D0154B5B6AFB73BB895A1CBA8196
:1009C8001A467B681344FA7B1A70104A0F4B9B69CE
:1009D80043F0080393610D4A0C4B1B6A43F008036C
:1009E8001362FB7B5D2BDFD1BB89013BBB81BB89DC
:1009F8007A68134400221A70054B01221A7000BF4E
:100A08001437BD465DF8047B704700BF00100140F5
:100A1800C405022080B584B000AF78600023FB7362
:100A28000023BB81184BDB6903F02003002B16D091
:100A3800154B5B6AFB73BB895A1CBA811A467B68E3
:100A48001344FA7B1A70104A0F4B9B6943F0080352
:100A580093610D4A0C4B1B6A43F008031362FB7B3E
:100A68007D2BDFD1BB89013BBB81BB897A681344ED
:100A780000221A70054B01221A707868FFF748FFA8
:100A880000BF1037BD4680BD00100140C5050220DB
:100A980080B582B000AF5E20FFF7EAFE0C4800F098
:100AA80009F90C4B1B78DBB21A460B4B9B5C5F2B8E
:100AB800F1D105E07E20FFF7DBFEFB790133FB7106
:100AC800FB79042BF6D900BF0837BD4680BD00BFAF
:100AD800C0D40100370402204404022080B483B04B
:100AE80000AF03460A46FB711346BB71FB79012B25
:100AF80018D1BB79002B15D1224A224B1B6B43F02E
:100B080002031363204A204B1B6843F4804313609D
:100B18001D4A1D4B9B6843F4004393601B4B012205
:100B28001A7028E0FB79012B18D1BB79012B15D15C
:100B3800144A144B1B6B43F002031363124A124B03
:100B48001B6843F0805313600F4A0F4B9B6843F0B8
:100B5800005393600D4B01221A700CE0FB79002BB7
:100B680009D1084A074B1B6B23F002031363074B99
:100B780000221A70FFE700BF0C37BD465DF8047B02
:100B8800704700BF003802400004024035040220CC
:100B980080B582B000AF78600B46FB701346BB701F
:100BA800414B1B78002B7BD0FB78012B16D17B683F
:100BB800002B13D1BB78002B06D13C4A3B4B9B69D9
:100BC80043F08003936166E0BB78012B63D1374A19
:100BD800364B9B6943F4804393615CE0FB78002BC0
:100BE80016D17B68002B13D1BB78002B06D12F4A76
:100BF8002E4B9B6943F4000393614EE0BB78012BB5
:100C08004BD12A4A294B9B6943F08043936144E0C6
:100C1800FB78012B02D17B68002B41D1FB78002B9C
:100C28002ED17B68002B2BD0BB78002B12D11F4A0A
:100C38001E4B5B6983F080035361786800F03AF8D3
:100C48001A4A1A4B5B6983F080035361786800F095
:100C580031F824E0BB78012B21D1144A134B5B698E
:100C680083F480435361786800F024F80F4A0F4BEF
:100C78005B6983F480435361786800F01BF80EE0E9
:100C8800094B1B7883F00103DBB2002B08D008481E
:100C9800FFF73EFE04E000BF02E000BF00E000BF37
:100CA80000BF0837BD4680BD35040220000402405D
:100CB8001CEA000880B483B000AF786003E000BF8E
:100CC8007B68013B7B607B68002BF8D100BF0C3749
:100CD800BD465DF8047B704780B400AF374A374B98
:100CE8001B6843F480731360344A344B1B6823F049
:100CF8000F031360314A314B1B6843F0070313603D
:100D08002F4B00221A602E4B00229A602C4A2C4B43
:100D18001B6843F480231360294A294B1B6843F45A
:100D28008033136000BF264B1B6803F40033002B8D
:100D3800F9D0234B00225A60214B43F204625A60D7
:100D48001F4A1F4B5B6843F4800353601C4A1C4BCB
:100D58009B6893601A4A1A4B9B6843F4004393605C
:100D6800174A174B9B6843F4A0539360144A144BDB
:100D78001B6843F08073136000BF114B1B6803F0BE
:100D88000073002BF9D00E4A0D4B9B6823F0030328
:100D980093600B4A0A4B9B6843F00203936000BFC1
:100DA800074B9B6803F00C03082BF9D1054B064A47
:100DB8001A6000BFBD465DF8047B7047003C0240E6
:100DC800003802400800022000E6DF0C80B400AFC3
:100DD800084A084B5B6B43F040035363064A064BD3
:100DE8001B6843F00403136000BFBD465DF8047B35
:100DF800704700BF003802400008065080B584B034
:100E080000AF78600B467B80FFF7E0FF0023FB8193
:100E180010E000BF0B4B5B6803F00103012BF9D115
:100E2800FB897A681344074A9268D2B21A70FB8920
:100E38000133FB81FA897B889A42EAD300BF1037D5
:100E4800BD4680BD0008065080B584B000AF03469B
:100E5800B9607A60FB73294A284B1B6B43F0010386
:100E68001363274A264B1B6843F400431360244A44
:100E7800234B9B6843F440439360214A204B1B6AF1
:100E880043F0005313621D4A1C4B1B6C43F00203D2
:100E980013647968B86800F037F81A4A194B1B6A66
:100EA80043F010031362174A164B5B6C43F400437C
:100EB8005364144B4FF4C0429A61124A114B1B6899
:100EC80023F0100313600F4A0E4B1B6823F06003D6
:100ED8001360FB7B012B06D10A4A0A4B1B6843F0BF
:100EE8000103136005E0074A064B1B6823F0010362
:100EF800136000BF1037BD4680BD00BF00380240F8
:100F08000000024000040040B0B582B000AF786035
:100F18003960374B1B681B09013B07EE903AF8EE26
:100F2800677A344BC3ED007A786800F051FB0346CA
:100F38000C461A4623464FF000002F4900F0C6FC25
:100F480003460C4625461C462A4B1B68184600F0EB
:100F58003FFB02460B462046294600F08DFB034620
:100F68000C461846214600F099FD0246234B1A60AC
:100F7800224B1B68184600F02BFB04460D463868C8
:100F880000F026FB18A3D3E9002300F075FB024606
:100F98000B462046294600F099FC03460C461846A5
:100FA800214600F07BFD03463B60154B10229A62F8
:100FB800134B124AD2ED007AB7EE007A77EEC77A71
:100FC800FCEEE77A17EE902ADA620D4BD7ED007A3D
:100FD800FCEEE77A17EE902A9A6300BF0837BD4601
:100FE800B0BD00BFAFF300807B14AE47E17AA43FE9
:100FF80008000220380402200000F03F3C040220D0
:101008000004004080B582B000AF03463960FB7130
:10101800174A174B5B6C43F001035364154B1022BE
:101028009A62144A3B68D362124A124B1B6843F017
:10103800010313600F4A0F4BDB6843F00103D360D1
:10104800FB79012B06D10B4A0A4B1B6843F00103BD
:10105800136005E0074A074B1B6823F00103136080
:101068001920FFF721FB00BF0837BD4680BD00BF30
:10107800003802400000014080B400AF054A054B2B
:101088001B6923F00103136100BFBD465DF8047BB3
:10109800704700BF0000014080B500AF474A474B8A
:1010A8001B6B43F004031363454A454B1B6843F02D
:1010B80000731360424A424B9B6843F0407393604D
:1010C8003F4A3F4B5B6A43F4C02353623C4A3C4B64
:1010D8001B6843F400131360394A394B9B6843F487
:1010E80040139360364A364B5B6A43F4C0635362DD
:1010F800334A334B1B6843F400331360304A304B98
:101108009B6843F4403393602D4A2D4B1B6843F48E
:10111800000313602A4A2A4B9B6843F440039360F8
:10112800274A274B9B6943F400639361244A244B65
:101138001B6843F400231360214A214B9B6843F446
:10114800402393601D4A1D4B1B6C43F400431364FA
:101158001C4A1C4B1B6843F038031360194A194B8F
:101168001B6843F002031360164A164B1B6843F0D2
:1011780001031360134A134B1B6823F080031360A9
:10118800104A104B1B6843F4007313600D4A0D4B53
:101198001B6843F4807313600A4A0A4B1B6843F0C8
:1011A80004031360074A074B1B6843F040031360AE
:1011B8004FF4C860FFF77EFD00BF80BD00380240D5
:1011C80000080240003C004080B483B000AF0346F2
:1011D800FB80044AFB88D36000BF0C37BD465DF82E
:1011E800047B7047003C004080B582B000AF0346E6
:1011F800FB710A4A094B5B6823F400635360084A91
:10120800074B9B6943F080739361FB799BB2184647
:10121800FFF7DAFF00BF0837BD4680BD0030014048
:101228000008024080B582B000AF0346FB710A4A4D
:10123800094B5B6823F400635360084A074B9B69BA
:1012480043F480739361FB799BB21846FFF7BCFFA8
:1012580000BF0837BD4680BD00300140000802408D
:1012680080B582B000AF0346FB800A4A094B5B6831
:1012780043F470635360084A074B9B6943F48073D7
:101288009361FB881846FFF79FFF00BF0837BD46EC
:1012980080BD00BF003001400008024080B500AFAB
:1012A8000120FFF7A1FFA020FFF704FD1120FFF7A1
:1012B8009BFFA020FFF7FEFC3A20FFF795FF0520D3
:1012C800FFF7B0FF3620FFF78FFFA020FFF7AAFF38
:1012D800B120FFF789FF0F20FFF7C2FF0F20FFF7AC
:1012E800BFFF0F20FFF7BCFF2920FFF77DFF00BFDE
:1012F80080BD00BFA4060108000002200C000220E7
:101308000C0002202C06022081F0004102E000BF00
:1013180083F0004330B54FEA41044FEA430594EAAD
:10132800050F08BF90EA020F1FBF54EA000C55EAE8
:10133800020C7FEA645C7FEA655C00F0E2804FEAB9
:101348005454D4EB5555B8BF6D420CDD2C4480EA9B
:10135800020281EA030382EA000083EA010180EACB
:10136800020281EA0303362D88BF30BD11F0004F19
:101378004FEA01314FF4801C4CEA113102D040424F
:1013880061EB410113F0004F4FEA03334CEA13338A
:1013980002D0524263EB430394EA050F00F0A780A2
:1013A800A4F10104D5F1200E0DDB02FA0EFC22FA9D
:1013B80005F2801841F1000103FA0EF2801843FA91
:1013C80005F359410EE0A5F120050EF1200E012A82
:1013D80003FA0EFC28BF4CF0020C43FA05F3C018C0
:1013E80051EBE37101F0004507D54FF0000EDCF139
:1013F800000C7EEB00006EEB0101B1F5801F1BD3E2
:10140800B1F5001F0CD349085FEA30004FEA3C0CE5
:1014180004F101044FEA445212F5800F80F09A80DB
:10142800BCF1004F08BF5FEA500C50F1000041EBDF
:10143800045141EA050130BD5FEA4C0C404141EBE3
:10144800010111F4801FA4F10104E9D191F0000F0A
:1014580004BF01460020B1FA81F308BF2033A3F18D
:101468000B03B3F120020CDA0C3208DD02F1140C84
:10147800C2F10C0201FA0CF021FA02F10CE002F1BF
:101488001402D8BFC2F1200C01FA02F120FA0CFCB8
:10149800DCBF41EA0C019040E41AA2BF01EB045101
:1014A800294330BD6FEA04041F3C1CDA0C340EDCFF
:1014B80004F11404C4F1200220FA04F001FA02F342
:1014C80040EA030021FA04F345EA030130BDC4F100
:1014D8000C04C4F1200220FA02F001FA04F340EAF5
:1014E8000300294630BD21FA04F0294630BD94F0A6
:1014F800000F83F4801306BF81F480110134013D8D
:101508004EE77FEA645C18BF7FEA655C29D094EAFD
:10151800050F08BF90EA020F05D054EA000C04BF7B
:101528001946104630BD91EA030F1EBF0021002066
:1015380030BD5FEA545C05D14000494128BF41F005
:10154800004130BD14F580043CBF01F5801130BD69
:1015580001F0004545F0FE4141F470014FF00000F4
:1015680030BD7FEA645C1ABF194610467FEA655CA5
:101578001CBF0B46024650EA013406BF52EA033547
:1015880091EA030F41F4002130BD00BF90F0000F35
:1015980004BF0021704730B54FF4806404F1320471
:1015A8004FF000054FF0000150E700BF90F0000F2A
:1015B80004BF0021704730B54FF4806404F1320451
:1015C80010F0004548BF40424FF000013EE700BF21
:1015D80042004FEAE2014FEA31014FEA02701FBFB1
:1015E80012F07F4393F07F4F81F06051704792F083
:1015F800000F14BF93F07F4F704730B54FF46074FD
:1016080001F0004521F0004120E700BF50EA010247
:1016180008BF704730B54FF000050AE050EA0102F4
:1016280008BF704730B511F0004502D5404261EB64
:1016380041014FF4806404F132045FEA915C3FF4A5
:10164800DCAE4FF003025FEADC0C18BF03325FEA3E
:10165800DC0C18BF033202EBDC02C2F1200300FAF3
:1016680003FC20FA02F001FA03FE40EA0E0021FA18
:1016780002F11444C1E600BF70B54FF0FF0C4CF402
:10168800E06C1CEA11541DBF1CEA135594EA0C0FB8
:1016980095EA0C0F00F0DEF82C4481EA030621EAF3
:1016A8004C5123EA4C5350EA013518BF52EA03352E
:1016B80041F4801143F4801338D0A0FB02CE4FF0E0
:1016C8000005E1FB02E506F00042E0FB03E54FF010
:1016D8000006E1FB03569CF0000F18BF4EF0010E08
:1016E800A4F1FF04B6F5007F64F5407404D25FEA04
:1016F8004E0E6D4146EB060642EAC62141EA5551B7
:101708004FEAC52040EA5E504FEACE2EB4F1FD0CF8
:1017180088BFBCF5E06F1ED8BEF1004F08BF5FEA76
:10172800500E50F1000041EB045170BD06F0004628
:1017380046EA010140EA020081EA0301B4EB5C04D5
:10174800C2BFD4EB0C0541EA045170BD41F48011CD
:101758004FF0000E013C00F3AB8014F1360FDEBFF2
:10176800002001F0004170BDC4F10004203C35DACE
:101778000C341BDC04F11404C4F1200500FA05F351
:1017880020FA04F001FA05F240EA020001F00042F2
:1017980021F0004110EBD37021FA04F642EB060168
:1017A8005EEA430E08BF20EAD37070BDC4F10C0492
:1017B800C4F1200500FA04F320FA05F001FA04F256
:1017C80040EA020001F0004110EBD37041F1000142
:1017D8005EEA430E08BF20EAD37070BDC4F120054D
:1017E80000FA05F24EEA020E20FA04F301FA05F2B5
:1017F80043EA020321FA04F001F0004121FA04F25D
:1018080020EA020000EBD3705EEA430E08BF20EA2C
:10181800D37070BD94F0000F0FD101F00046400066
:1018280041EB010111F4801F08BF013CF7D041EAE8
:10183800060195F0000F18BF704703F000465200EC
:1018480043EB030313F4801F08BF013DF7D043EABD
:101858000603704794EA0C0F0CEA135518BF95EA73
:101868000C0F0CD050EA410618BF52EA4306D1D1FA
:1018780081EA030101F000414FF0000070BD50EA19
:10188800410606BF1046194652EA430619D094EAA3
:101898000C0F02D150EA013613D195EA0C0F05D18D
:1018A80052EA03361CBF104619460AD181EA0301E1
:1018B80001F0004141F0FE4141F470014FF0000099
:1018C80070BD41F0FE4141F4780170BD70B54FF034
:1018D800FF0C4CF4E06C1CEA11541DBF1CEA1355B4
:1018E80094EA0C0F95EA0C0F00F0A7F8A4EB050496
:1018F80081EA030E52EA03354FEA013100F088808D
:101908004FEA03334FF0805545EA131343EA126355
:101918004FEA022245EA111545EA10654FEA00260A
:101928000EF000419D4208BF964244F1FD0404F5C3
:10193800407402D25B084FEA3202B61A65EB03051F
:101948005B084FEA32024FF480104FF4002CB6EBDC
:10195800020E75EB030E22BFB61A754640EA0C005C
:101968005B084FEA3202B6EB020E75EB030E22BF9C
:10197800B61A754640EA5C005B084FEA3202B6EBDD
:10198800020E75EB030E22BFB61A754640EA9C009C
:101998005B084FEA3202B6EB020E75EB030E22BF6C
:1019A800B61A754640EADC0055EA060E18D04FEA2A
:1019B800051545EA16754FEA06164FEAC30343EACA
:1019C80052734FEAC2025FEA1C1CC0D111F4801F97
:1019D8000BD141EA00014FF000004FF0004CB6E790
:1019E80011F4801F04BF01430020B4F1FD0C88BF2F
:1019F800BCF5E06F3FF6AFAEB5EB030C04BFB6EB3A
:101A0800020C5FEA500C50F1000041EB045170BD2C
:101A18000EF0004E4EEA113114EB5C04C2BFD4EB59
:101A28000C0541EA045170BD41F480114FF0000EDD
:101A3800013C90E645EA060E8DE60CEA135594EA59
:101A48000C0F08BF95EA0C0F3FF43BAF94EA0C0F5C
:101A58000AD150EA01347FF434AF95EA0C0F7FF4D1
:101A680025AF104619462CE795EA0C0F06D152EA25
:101A780003353FF4FDAE1046194622E750EA410609
:101A880018BF52EA43067FF4C5AE50EA41047FF41A
:101A98000DAF52EA43057FF4EBAE12E74FEA41027D
:101AA800B2F1E04324BFB3F5001CDCF1FE5C0DD9B4
:101AB80001F0004C4FEAC0024CEA5070B2F1004FFE
:101AC80040EB830008BF20F00100704711F0804F01
:101AD80021D113F13872BCBF01F00040704741F4C6
:101AE80080114FEA5252C2F11802C2F1200C10FACA
:101AF8000CF320FA02F018BF40F001004FEAC123AE
:101B08004FEAD32303FA0CFC40EA0C0023FA02F351
:101B18004FEA4303CCE77FEA625307D150EA013327
:101B28001EBF4FF0FE4040F44000704701F00040F7
:101B380040F0FE4040F40000704700BFDFF834D0AA
:101B4800002103E00C4B5B58435004310B480C4B0D
:101B580042189A42F6D30B4A02E0002342F8043BAB
:101B6800094B9A42F9D3FEF763FB0CF09DFEFEF792
:101B780053FD704700000820A40601080000022059
:101B88000C0002200C0002202C060220FEE70000B8
:101B980070B592100023934205DA50F8234041F8BB
:101BA80023400133F7E7062A2ED0082A5CD0042AFE
:101BB80040F0A38000225148CB6815580868DCB271
:101BC80045404F48065D1C0E0432045D44EA062475
:101BD800C3F30746282A865D44EA0664C3F307264A
:101BE800805D44EA004485EA04004C68086180EAA4
:101BF80004008C68486180EA040080EA0303886175
:101C0800CB617AD01031D6E700223C4B48690132CB
:101C180003EB8203C5B253F8044C0B685C40384BA5
:101C28005E5D050E5D5D45EA0625C0F30746C0F317
:101C380007209E5D185C45EA066545EA004084EA8F
:101C480000038B6101200B465D689C69032885EAC7
:101C58000404DC6101D1072A4FDC0130062803F1B6
:101C68000403F1D11831D0E70024244BCA69E558A0
:101C78000B68D0B25D40224B1E5C100E0434185C19
:101C880040EA0620C2F307461C2C9E5D40EA066027
:101C9800C2F307269E5D40EA064085EA00004D68CB
:101CA800086280EA05008D68486280EA0500CD6810
:101CB800886280EA0500C8621FD0050E20315E5D8B
:101CC800C5B25D5D45EA0665C0F30746C0F3072067
:101CD8009E5D1B5C51F8100C45EA064545EA032356
:101CE800434051F80C0C0B61434051F8080C4B6110
:101CF80043405A408B61CA61B7E770BD2CED0008BC
:101D0800C4FF00080B6810B504686340136044689A
:101D18004B686340536084688B6863409360C06815
:101D2800CB684340D36010BDC3680E4A10B5DCB21F
:101D38001B0A32F81440826843EA0262CA60826869
:101D48004368120A42EA03638B6042680368120A16
:101D580042EA03634B6003681B0A83EA04430B608F
:101D680010BD00BF7C040108C3680E4A10B503F01B
:101D78000F041B0932F81440826843EA0272CA60F1
:101D880082684368120942EA03738B6042680368F9
:101D9800120942EA03734B6003681B0983EA044390
:101DA8000B6010BD4A030108002370B51D46C258D8
:101DB80002F0800402F07F3602F08032D20B42EA51
:101DC80046025540CD500433102B4FEA444401D00D
:101DD8002546ECE74FF00743240E5C430B6863404D
:101DE8000B6070BD2DE9F74F0468426882EA14164B
:101DF80006F00F36724084EA061682EA16439BB252
:101E08005A4086EA034383EA920505F033356B406E
:101E180082EA850583EA152404F0FF14634085EA05
:101E280004244FEAF47484EA030202F0AA3253400D
:101E3800624001F180044FEAF37301940F685A4D30
:101E4800DFF87C81DFF87CB1DFF87C9187EA321714
:101E580007F03F04C7F3052C55F824A04C685440FC
:101E680004F03F06103158F826604AEA060A4F4E39
:101E780056F82CC04E4E4AEA0C0AC7F3054CC7F375
:101E8800056756F82CC05BF827704AEA0C0A4AEA3C
:101E9800070AC4F30527DFF834C159F827704AEA5E
:101EA800070AC4F30547C4F305645CF827704AEAD7
:101EB800070A404F57F824404AEA040A51F8084CE8
:101EC80083EA0A0384EA331404F03F0A55F82A50D7
:101ED800009551F8045C009E5D40C5F3052A59F849
:101EE8002A9046EA090A05F03F09304E58F8298039
:101EF8004AEA080AC5F30548C5F305655CF828C031
:101F080057F825504AEA0C0A4AEA050AC4F3052597
:101F180056F82550264E4AEA050AC4F30545C4F387
:101F2800056456F825504AEA050A5BF824504AEA3F
:101F380005046240019CA14280D11F4901240C6024
:101F480009681E490C68651C02D10C60096809B152
:101F58005A01DB004FEA720282EA030101F0AA315A
:101F68004B404A404FEA730382EA132404F0FF14FB
:101F7800624083EA042482EA940303F033335A402C
:101F880084EA830383EA124189B24B4082EA014121
:101F980083EA111202F00F3281EA02115340016004
:101FA800436003B0BDE8F08FC4000108C4FE000818
:101FB800C4FC0008C4FB000808300240003002409E
:101FC800C40101086C03010838F90008C4FD0008C1
:101FD8002DE9F04F6C4BF9B005468B46009202ACE8
:101FE80003F1100618685968224603C20833B34241
:101FF8001446F7D140AE6022304664490CF078FCB4
:10200800634B16AA944603F1380818685968644661
:1020180003C408334345A446F7D15E4B0DF1180AB3
:10202800D44603F1100818685968644603C4083395
:102038004345A446F7D1584B0DF1280CE04603F16F
:10204800300918685968444603C408334B45A0460C
:10205800F7D10023D15CC80801F0070802A9285C61
:1020680031F8188024AC10EA080F0CBF00210121B8
:1020780019550133382BEDD10021BBF1010F06BFF3
:10208800C1F10F094FEA49094FEA410909F101086D
:1020980078AA4FEA89094A44002378AF42F8803C7D
:1020A80007EB880242F8803C1AF8012098181B2890
:1020B80004EB0205C8BFED1832A8D4BFED5C15F8D3
:1020C8001C5CC55401331C2BF0D19818372804EB3D
:1020D8000200C8BFC01832ADD4BFC05C10F81C0CD9
:1020E800E8540133382BF0D100231CF80320AA5CF4
:1020F80042B178A8484456F8232050F8807C3A43E7
:1021080040F8802C0CEB0302127EAA5C4AB178AA34
:1021180002EB880056F8237050F8802C174340F8DB
:10212800807C0133182BE0D101311029A5D100237F
:1021380058AA99581A4401F47C00526801F47C6446
:10214800800140EA842002F47C0440EA9420C2F32F
:1021580085142043009CE050204601F03F0401F420
:102168007C31090341EA044102F03F041844214349
:1021780002F47C32083341EA1212802B4260D7D134
:1021880079B0BDE8F08F00BF34EA000844EA0008DF
:10219800A4EA0008DCEA0008ECEA000870B50021AF
:1021A80088B00E4600240125A41B65F10005465899
:1021B800A4190E4E8E5945F10005A41B65F10005C2
:1021C8004DF80140043120294FF0000385F0010645
:1021D800E8D1013EC2585DF80310514031404A40F1
:1021E800C2500433202BF5D108B070BD58ED00085B
:1021F8002DE9F04FADB000230390CA18D06911AA99
:1022080098500433242BF8D100264FF000084FF0E3
:10221800000900200590CDF81090C4466048DDE91B
:10222800048900EB860E00276FF003027A4311AB96
:102238005EF8022053F82730A2FB03231CEB0204AC
:102248004FF0000545F10005A446002400950194CF
:1022580006930794DDE90023DDE90645121943EBEF
:102268000503013718EB020849EB0309B742DBDD28
:102278000136092ECDD1002637460025CDF820900D
:102288000995C44611AADDE908890137324400924C
:10229800BE463218009CA2EB8E0254F8043F526AE4
:1022A8000094A2FB03234FF0000B0A93CDF82CB047
:1022B8001CEB0204DDE90A234FF0000545F1000597
:1022C800521943EB0B030EF1010E18EB020849EB10
:1022D8000309BEF1080FA446DBDD1AAB082FF45042
:1022E80006F10406C9D1CDF88880CDF88CB0CDF8B8
:1022F80090B0CDF894B0CDF898B0CDF89CB0CDF8AA
:10230800A0B0CDF8A4B0CDF8A8B0CDF8ACB05E467A
:102318000925002000230746AF4219DA1AAA0DF151
:102328008C0E50F802901F4A0C9356F802C00022F7
:10233800B6440D92DDE90C235EF80040121943F112
:102348000003ECFB09234EF8002001370430E3E7D3
:10235800013D012D06F10406DBD10024254608596C
:1023680000220123521B63F10003121823A843F132
:1023780000032058121A63F1000303980E930251C8
:1023880004340025202C0F9583F00105E7D1FFF7D1
:1023980005FF03982DB0BDE8F04FFFF7FFBE00BF63
:1023A800A0FB000858ED00082DE9F0430C684FF039
:1023B800260C0025ECFB024504602A464D68561998
:1023C80046608A684FF0000343F1000717EB0208E4
:1023D800C0F80880CA6843F1000919EB0206C66014
:1023E8000A6943F1000717EB0208C0F810804A6930
:1023F80043F1000919EB020646618A6943F10007B7
:1024080017EB0208C0F81880CA6943F1000919EBF4
:10241800020643F100070CFB0744C6610460BDE8EF
:10242800F08300002DE9F341464E089D0127002462
:102438000194376036680196434E37680197019FCB
:10244800013705F1FF3554D1019F37603668019691
:10245800019E3EBB34461F5916597E402E40774098
:10246800075117597E400E510434202CF3D1002413
:1024780002F1200703F1200600F1200856F804C0F5
:102488003E598CEA06062E4086EA0C0C48F804C031
:102498003F5901F1200C7E404CF804600434202C94
:1024A800E6D14CE01F5916593E402E40374007519F
:1024B80017593E400E510434202CF3D1002402F168
:1024C800200703F1200600F1200856F804C03E5901
:1024D8008CEA06066E4006EA0C0C48F804C03F5920
:1024E80001F1200C3E404CF804600434202CE6D165
:1024F80025E01F5916597E402E403740075117597D
:102508003E400E510434202CF3D1002402F1200760
:1025180003F1200600F1200856F804C03E598CEA61
:1025280006066E4006EA0C0C48F804C03F5901F153
:10253800200C3E404CF804600434202CE6D102B054
:10254800BDE8F08108300240003002402DE9F04F2C
:10255800844690E80106D5B00023DCF80C20DCF8AE
:102568001060039300920196CA5804AF12BADA5168
:102578000433402BF8D13C460025626B236A795915
:1025880053404B40A168043559404FEAF171B5F505
:10259800807F216404F10404EFD19DE80C003E46DD
:1025A8000DF1600851464C46DFF81CB34FEAF06560
:1025B800AB4435685D4482EA010B0BEA040B8BEAF5
:1025C800020BAB44C04D154472684FEAB4045B4437
:1025D8002A4484EA010BBC4D0BEA000B8BEA010B81
:1025E8000D44B1684FEAB0005A44294480EA040B0C
:1025F800B54D03EA0B0B02EBF3628BEA040B4FEACF
:10260800B3032544F468594483EA000B2C440BEACD
:10261800020BAD4D01EBF2618BEA000B4FEAB202FF
:102628005C44054482EA030B30690BEA010B284439
:102638008BEA030B143604EBF1645844464500EB6F
:10264800F4604FEAB101AFD13E46A04D4FEAF06BBE
:102658005D4481EA040B8BEA020BAB44356D5D44A3
:102668002B449A4D4FEAB404154481EA00026240B3
:102678002A44756D2A44954D0D44B16D2944934DF6
:102688004FEAB00080EA040B2544F46D02EBF362D4
:102698008BEA030B2C444FEAB3038C4D594483EA6D
:1026A800000B01EBF2618BEA020B05444FEAB20220
:1026B800306E5C4482EA030B8BEA010B2844143623
:1026C80004EBF1645844464500EBF4604FEAB1016D
:1026D800BBD12CAD07F582781435454559D055F84E
:1026E800146CDFF8F8B1B3449B4441EA040301EAEF
:1026F800040613400BEBF06B33435B4455F8106C46
:10270800DFF8D8B14FEAB404B34444EA000693446E
:102718000E4004EA000232435A4455F80C6CDFF8C4
:10272800BCB14FEAB000B34443EA00068B442640EC
:1027380003EA00013143594455F8086CDFF89CB1AD
:1027480002EBF362B3444FEAB3035C4442EA030B7F
:1027580002EA03060BEA000B4BEA060B5C4455F849
:10276800046CDFF878B101EBF261B3444FEAB202CE
:10277800584441EA020B01EA02060BEA030B4BEA52
:10278800060B04EBF164584400EBF4604FEAB10126
:10279800A2E740AD07F5AA781435454541D055F86C
:1027A800147C4B4E3E44334481EA0406564003EB06
:1027B800F063334455F8107C454E3E444FEAB40468
:1027C800324481EA00066640324455F80C7C404E9B
:1027D8004FEAB0003E44314480EA04065E4031448A
:1027E80055F8087C3A4E02EBF3623E444FEAB303D5
:1027F800344483EA00065640344455F8047C344E89
:1028080001EBF2613E444FEAB202304482EA030629
:102818004E4004EBF164304400EBF4604FEAB10140
:10282800BAE72C4D01262E602D6803952A4D2E6897
:102838000396039E01362ED1039E2E602D680395C4
:10284800039EDCF80490DCF80880DCF80C70DCF8F7
:1028580010508EB9DCF800604C44304441443A448E
:102868002B44CCF80000CCF80440CCF80810CCF885
:102878000C20CCF8103024E089EA441488EA41118D
:1028880087EA4212CCF80040CCF80410CCF80820B3
:1028980085EA43130FE08AEA4111CCF80410009945
:1028A80081EA4212CCF80820019A89EA4414CCF84B
:1028B800004082EA431384EA4014CCF80C30CCF888
:1028C800104055B0BDE8F08F9979825AA1EBD96EC6
:1028D800D6C162CA0830024000300240DCBC1B8FFF
:1028E8002DE9F04FC5B0002303930B681BBA04937E
:1028F8004B681BBA05938B681BBA0693CB681BBA47
:1029080007930B691BBA08934B691BBA09938B6928
:102918001BBA0A93CB691BBA0B930B6A1BBA0C93AD
:102928004B6A1BBA0D938B6A1BBA0E93CB6A1BBA00
:102938000F930B6B1BBA10934B6B1BBA11938B6BDA
:102948001BBA1293CB6B1BBA139342AE12AB196826
:1029580053F8385C53F8144C53F8342C2C448D0A33
:1029680085EA714585EAF141D70853F8105C21449E
:1029780087EAF2175C6887EAB24739442A44A50A0D
:10298800996085EA744553F8301C85EAF44422447A
:10299800CC0884EAF11484EAB1411144D9600833BF
:1029A800B342D4D1664E0368026944684169D0F8DD
:1029B80008A08569D0F80C80D0F81C9001273760F2
:1029C800366803965F4E37680397039F013727D110
:1029D800039F376036680396039E002E38D003683D
:1029E800594E594FC1698569C268D0F81490D0F81A
:1029F80008B0D0F804C05E40036906605F4082EA10
:102A0800050487EA01038BEA090A076187EA0C08CB
:102A180072408BEA01018CEA050586EA090917E08C
:102A2800494F494E5F40564088EA050C8AEA010B37
:102A380089EA0A0A86EA090387EA0802654087EAFA
:102A4800010986EA0408514607600661DA466446C9
:102A58004FF0000C0CF11007DFF8F0B06E46BE59CD
:102A68005CF80B7037444FEAB21686EAF22686EA1B
:102A78007266374485EA010616406E403E44B1440A
:102A880044EA030606EA0A0604EA03073E434FEA55
:102A9800B30787EA733787EAB3573E4404AFE34482
:102AA8006744DBF804B07F68C844BB4481EA020786
:102AB80008EA07075D444F403D444FEAB8174E44C3
:102AC80087EAF82787EA786746EA030B3D440BEA6A
:102AD800040B06EA03074BEA070B4FEAB60787EA37
:102AE800763787EAB6570CF1080CBB44BCF5807FF3
:102AF800AA44AB4408D08946154641465246A046EA
:102B08009A4634465B46A5E7456807682E448568BB
:102B180046602B448360C3681C440369C460534403
:102B2800036143694344436183691A44C369826109
:102B38005F4419440760C16145B0BDE8F08F00BF2C
:102B48000830024000300240F0F0A5A518F4000853
:102B58002DE9F04FADF5497D002627968D198C5942
:102B68006D6828AF95FA85FC374423BA00220836E9
:102B780042EA0C041D46802EC7E90045EED128A97B
:102B88004FF0100CD1E91223D1E90045D1E91C8995
:102B9800A41845EB03054FEAC80343EA59730493A5
:102BA8004FEAC90343EA587305934FEAD84343EA07
:102BB800493306934FEAD94343EA48330793DDE99B
:102BC80006ABDDE9042383EA0B034FEA981B82EA8C
:102BD8000A024BEA896A4FEA991BCDF808A0CDF89A
:102BE8000CB0DDE90289D1E9026782EA0802A4187B
:102BF80083EA090345EB0305330A43EA07630893AD
:102C08003B0A43EA06630993730843EAC7730A93C6
:102C18007B0843EAC6730B93DDE90AABDDE90823B9
:102C280082EA0A024FEAD61A4AEA476A83EA0B039B
:102C380082EA0A024FEAD71B121983EA0B030CF146
:102C4800010C43EB0503BCF1500FC1E9202301F14E
:102C5800080197D1D0E90245D0E90467CDE90845D4
:102C6800D0E90C45D0E90689CDE90A67D0E90AAB75
:102C7800D0E90E674449CDE910450124CDE90C8916
:102C8800D0E90023D0E90889CDE90EABCDE9126778
:102C98000C60096827913D490C682794279C0134EA
:102CA8001CD1279C0C6009682791279900296FD0AF
:102CB8000FF2C40BDBE900AB8AEA020A8BEA030BCA
:102CC8002FA3D3E9002388EA020889EA0309C0E9A7
:102CD80000ABC0E9088932463B4614E00FF2980B76
:102CE800DBE900AB8AEA020A8BEA030B24A3D3E9E7
:102CF800002388EA020889EA0309C0E900ABC0E9B1
:102D08000889DDE91223DDE90C67DDE91045744027
:102D18007D40CDE90245DDE90A67DDE90E457440ED
:102D28007D40CDE90445DDE9084584EA080485EAE3
:102D38000905CDE91645DDE9124574407D40CDE928
:102D48001445DDE91067DDE9084566406F4082EA11
:102D5800080283EA0903CDE90667DDE90C89DDE9A4
:102D68000E6788EA0A0889EA0B098AEA060A8BEAE2
:102D7800070B23E0AFF30080045670340000000016
:102D880078345689000000000830024000300240C4
:102D9800DDE91045DDE90E67CDE90645DDE90C45BD
:102DA800CDE91467CDE91645DDE90A67DDE908458F
:102DB800DDE912ABCDE90467CDE902450021844C79
:102DC80028AD0D440C44D5E90067D4E9004536190F
:102DD80047EB0507CDE918674FEA984646EA893672
:102DE8001A964FEA994646EA88361B964FEA98366D
:102DF80046EA89461C964FEA993646EA88464FEADB
:102E0800C85C1D964CEA592CDDE91C45DDE91A67BA
:102E1800CDF878C04FEAC95C4CEA582CCDF87CC094
:102E280066406F40DDE91E4566406F40DDE91845A4
:102E3800A41945EB0705CDE90045DDE91467DDE98F
:102E4800064506EA080624EA080425EA090507EA09
:102E5800090766406F40DDE90045361947EB05076D
:102E68001AEB060ADDE902454BEB070BDDE90467BF
:102E780066406F4006EA020407EA0305CDE91845F3
:102E8800DDE90267DDE9044534403D40DDE91867C6
:102E98006640940744EA930420949C0744EA920409
:102EA8002194140F44EA031422941C0F44EA0214D8
:102EB8004FEA426C6F4023944CEAD31CCDE9186763
:102EC800DDE92045DDE92267CDF890C04FEA436C83
:102ED8004CEAD21CCDF894C074407D40DDE92467EB
:102EE80074407D40DDE91867361947EB0507DDE9D1
:102EF800164514EB0A0445EB0B05083116EB0A06D8
:102F080047EB0B07B1F5207FCDE9164516D0DDE973
:102F18001445DDE906ABCDE90645DDE90445CDE913
:102F28001489DDE91689CDE91645DDE90245CDE9C3
:102F38000223CDE9044532463B4640E7D0E900ABE1
:102F480016EB0A0647EB0B07C0E90067DDE90867DF
:102F5800921943EB0703DDE90AABC0E90223DDE977
:102F6800022312EB0A0243EB0B03DDE90C45C0E92F
:102F78000423DDE90423121943EB0503DDE9166791
:102F8800C0E90623D0E90823921943EB0703DDE9DA
:102F98000EABDDE91045C0E90823DDE9142318EB81
:102FA8000A0849EB0B09121943EB0503DDE912671F
:102FB800C0E90C23DDE90623921943EB0703C0E9B6
:102FC8000A89C0E90E230DF5497DBDE8F08F00BFE1
:102FD80080ED0008AFF300802DE9F04FA1B000228A
:102FE8000F928A070346D0F85480876DC66DD0F8D3
:102FF80060C00CD00A4610AD01F140091068516854
:103008002C4603C408324A452546F7D110A908685A
:103018000290DA484D6803952CEA070406EA07028D
:1030280040442243029CD64D02442244039807EBB5
:103038007262654426EA0204054402EA0700204356
:103048008C680494CF4C05443444049E02EB3555F7
:1030580005EA0200344427EA050630430444C868F8
:103068000590C948059E05EBF4343844304422EAFB
:10307800040704EA05063E4330440F69C34E069729
:1030880004EBB0203E44324425EA000700EA040677
:1030980037434E6907963A44BD4E079F00EB72626C
:1030A8003E44354424EA020702EA00063E432E4421
:1030B8008D690895089FB74D02EB36563D442C4460
:1030C80020EA060706EA02053D432544CC6909942F
:1030D800099FB14C06EBF5353C44204422EA05072C
:1030E80005EA06043C430444086A0A900A9FAB4870
:1030F80005EBB4243844024426EA040704EA050030
:10310800384310444A6A0B920B9FA54A04EB70603F
:103118003A44164425EA000700EA04023A433244D6
:103128008E6A0C96A6F5244C00EB3252ACF14F0C8B
:1031380002EA0006654424EA020C4CEA060CCF6A4F
:103148000E6B0D97AC44974D02EBFC3C3D442C4470
:1031580020EA0C090CEA020549EA0509A144924C47
:103168000CEBB929344422EA0905204409EA0C0485
:103178002C430444486B0190019D8C4809EB74640E
:1031880028442CEA0407024404EA0900384310449E
:103198008F6B874AC96B039D04EB30506FEA0008B8
:1031A8003A4408EA090A944400EA04024AEA020294
:1031B8006244DFF81CA200EBF2326FEA020C8A4488
:1031C8000CEA040BD14402EA000A4BEA0A0AD14489
:1031D800DFF800A202EBB929AA44544402EA08081D
:1031E80009EA000A4AEA0808089D4444DFF8E88129
:1031F80009EBF464A844804409EA0C0C04EA0200D0
:103208000D9D40EA0C00DFF8D4C1404404EBF050B7
:10321800AC4400EA0908624424EA090C48EA0C0CA8
:10322800029D6244DFF8B8C100EBB242AC4402EA46
:103238000408E14420EA040C48EA0C0C079DDFF876
:10324800A481E14402EB3939A84422EA000C444441
:1032580009EA000848EA0C080C9DA044554C09EB03
:10326800F8682C4408EA020C204429EA02044CEAD3
:103278000404044450480B9D08EBF45408440244E9
:1032880004EA090C28EA09004CEA000C9444069860
:103298004A4A04EBBC4C024491440CEA080024EA74
:1032A800080202439144464A0CEB39392A4409EA98
:1032B800040090442CEA040202434248059D42441B
:1032C80009EBF262384402EA0C08044429EA0C00CB
:1032D80048EA000004443C4802EBF454284404EA59
:1032E8000908844422EA090048EA00000A9D844447
:1032F800364804EBBC4C28440CEA0208814424EA12
:103308000200019D48EA0000DFF8DC8048440CEB2D
:103318003030A84400EA040942442CEA040849EA87
:103328000808049D4244DFF8C48000EBF262A84418
:1033380002EA0C09444420EA0C0849EA0808099DF5
:103348004444DFF8AC8002EBF454A84404EA0009D2
:10335800C44422EA000849EA0808C444DFF8948013
:10336800079D04EBBC4CB0440CEA0209404424EA33
:10337800020849EA080840443EE000BF78A46AD73A
:1033880056B7C7E8DB702024EECEBDC1AF0F7CF581
:103398002AC68747134630A8019546FDD898806904
:1033A800AFF7448BBED75C892211906B937198FD5F
:1033B8008E4379A65314440281E6A1D8C8FBD3E70B
:1033C800E6CDE121D60737C3870DD5F4ED145A456C
:1033D8002108B44962251EF640B340C0515A5E2602
:1033E800AAC7B6E95D102FD605E9E3A9F8A3EFFC53
:1033F800D9026F678A4C2A8DA5F5B82A0CEB3030B4
:103408008CEA0408AAF2BE6A88EA00080A9D924477
:10341800BA4AC24400EB3A7A2A4480EA0C0888EA9D
:103428000A080D9D1444B64A44440AEB74542A44CD
:103438008AEA000888EA04089444B24A039DC4440E
:1034480004EB3C4C3A4484EA0A0B10448BEA0C0B1C
:10345800AD4A58440CEB70202A448CEA040888EAE8
:103468000008069D9244A94AC24400EB3A7A2A44CD
:1034780080EA0C0888EA0A08099D1444A44A4444CE
:103488000AEB74548AEA00082A4488EA04080C9D66
:103498006244DFF8D8C2424404EB324284EA0A08A4
:1034A800AC4488EA0208019D84449A48C44402EB6B
:1034B8007C2C284482EA040888EA0C08029D82448D
:1034C8009548C2440CEB3A7A28448CEA0208059DD8
:1034D800044488EA0A08914844440AEB745428448E
:1034E8008AEA0C08024488EA04080898049D904473
:1034F8008B4A04EB3848024484EA0A0989EA080935
:10350800944488480B9ACC4408EB7C2C104488EAF5
:10351800040282EA0C0250441044834A0CEB3070D7
:1035280032448CEA080989EA000914447F4A4C4469
:1035380000EB74540A4480EA0C0989EA04099044AF
:103548007B4AC84404EB384884EA00092A4489EADB
:1035580008096244029DDFF818C24A4408EB722247
:10356800AC4462EA040989EA08096044099DDFF865
:1035780004C2484402EBB060AC4460EA0809644401
:1035880089EA02094C44DFF8F0C1079D00EBB45406
:10359800BC4464EA02074740E044B844654F04EB82
:1035A80078482F4468EA000C8CEA040C3A446244D8
:1035B800614F0C9D08EBF222374462EA040686EA62
:1035C800080638443044059F5C4E02EBB0603E4428
:1035D80060EA0807574034443C4400EBB454A5F56E
:1035E800801664EA0207A6F683364740B044B8441A
:1035F800534E039F0A9D04EB78483E4468EA000C4A
:103608008CEA040C324462444E4E4F4F08EBF222CF
:103618002E4462EA040C30448CEA080C604402EB45
:10362800B0600F4460EA08013C445140089E019F85
:103638002144464C00EBB151344461EA020646404D
:10364800A044B044424C0D9E01EB78483C4468EAE3
:1036580000054D4022442A443E4C069D049F08EB39
:10366800F2222C4462EA0105204485EA0805284430
:10367800394C02EBB060344460EA080555402144F7
:103688002944364C0B9E00EBB15161EA02053C44DB
:10369800454044442C44324D01EB7444354464EABB
:1036A80000062A444E402F4D324401262E602D68D4
:1036B8000F952D4D2E680F960F9E013604EBF222C2
:1036C80005D10F9E2E602D680F950F9D3DB102FA12
:1036D80001F004FA01F201FA00F400FA02F15D6D5A
:1036E80028445865986D02449A65DA6D14441A6E38
:1036F800DC651144196621B0BDE8F08F81F6718749
:1037080022619D6D0C38E5FD44EABEA4A9CFDE4BCD
:10371800604BBBF6C67E9B28FA27A1EA8530EFD41A
:10372800051D880439D0D4D9E599DBE6F87CA21FB9
:103738006556ACC439A093FCC3595B6592CC0C8F19
:10374800D15D84854F7EA86FE0E62CFE144301A36B
:10375800A111084E827E53F735F23ABDBBD2D72A63
:1037680091D386EB083002400030024070BCBFBEE7
:10377800442229F497FF2A43A72394AB2DE9F0416B
:10378800044600283DD000293BD003F006050AB9BD
:10379800022D36D12079E26020F00606022D26712E
:1037A80005D110F001051FD00020BDE8F081266981
:1037B800751E0F2D21D800256561A56125F0030C24
:1037C80005F00308575DA444C8F103084FEAC80888
:1037D80007FA08F8DCF81470013547EA0807B5421B
:1037E800CCF81470EAD1DCE7A160084604F11C02A9
:1037F80003F00101FEF7ECFBD6E740F6E740BDE831
:10380800F08140F6E840BDE8F0812DE9F0410E4630
:103818000446002856D0002954D003F006010AB9FE
:1038280002294FD12079E26020F00605022925718E
:1038380005D110F001081FD00020BDE8F0812169F2
:103848004D1E0F2D3AD800256561A56125F0030CA2
:1038580005F00308575DA444C8F103084FEAC808F7
:1038680007FA08F8DCF81470013547EA08078D42B2
:10387800CCF81470EAD1DCE703F00107BA0106328C
:10388800BDB204EB820230462946A6600432FEF738
:103898009FFB06F1080085F0010104F19C02FEF788
:1038A80097FB002F14BF18234FF48C73E21806F10E
:1038B800100029460432FEF78BFBBDE740F6F140C5
:1038C800BDE8F08140F6F240BDE8F081C3680133FD
:1038D800C36053B983680133836033B943680133E4
:1038E800436013B903680133036070472DE9F04F53
:1038F80093B002AB15468346994612AA00241C6071
:103908005C609C60DC6010339342F7D101F58066FF
:103918002746A6F5806A18245BF8073009F13008B5
:10392800E340A8EB440803F00F01404606EB011101
:1039380042460193FEF7E6F9019B03F0F001404689
:1039480051444246083CFEF7DDF914F1080FE3D173
:103958000437102F06F58076DBD10AACA9F11009DF
:1039680004F1100630463146FEF7DEF920462246BD
:103978003146103CFEF7C6F94C45F1D1029B2B604D
:10398800039B6B60049BAB60059BEB6013B0BDE8C9
:10399800F08F30B500239510AB4206DA50F823407B
:1039A80024BA41F823400133F6E70846BDE8304021
:1039B800FEF7EEB82DE9F74FDB1003F103090023FA
:1039C8000193A54B01241C601B680193A34B1C6841
:1039D8000194019C01348B4617D1019C1C601B6823
:1039E8000193019E146803685768456856B984EACC
:1039F800030C83689468C0685C40D3686F4083EAAE
:103A080000080BE087EA050C05E05468436884EA7F
:103A1800030C136804685C40A0462746904B4FEAA5
:103A28001C605FFA88F553F820601069704053F8FD
:103A38002560C7F3074580EA366053F8256080EAB9
:103A48003626C4F307205FFA87FA53F8200053F8A4
:103A58002AA086EA3046380EC7F3072753F82050C5
:103A6800506968405FFA8CF509F1FF3953F8255021
:103A780080EA3560C4F30745B9F1000F53F82550C3
:103A880080EA3520C8F3072502F1200253F82550B3
:103A980080EA35404FEA1465E4B253F8251052F82D
:103AA800085C53F8244081EA050181EA3A65C8F3C5
:103AB800074A4FEA186853F82AA052F8041C53F82A
:103AC800288085EA3A25CCF3072ACCF3074C88EA04
:103AD800010888EA346853F82C4053F82AA088EA89
:103AE800342853F8274085EA3A4588EA34484FEAAB
:103AF80016645BDD53F82470146891687C405FFAA3
:103B080088F75FFA80FA53F8277053F82AA084EAF6
:103B18003764C0F3074753F8277084EA372CC5F396
:103B2800072453F824408CEA344C040EC0F30720D1
:103B380053F8247054687C40F7B253F8277084EA2D
:103B48003764C5F3074753F8277084EA3727C8F363
:103B5800072453F8244087EA34472C0EEDB253F873
:103B6800244053F825504C4084EA3A64C8F3074A85
:103B78004FEA186853F82AA053F82880D16884EAD5
:103B88003A24C6F3072AC6F3074688EA010888EAF2
:103B9800356853F8265053F82AA053F8203088EA9D
:103BA800352884EA3A4488EA334837E72D4B1F5DC5
:103BB8005FFA88F41C5D44EA0767C0F307441C5D9C
:103BC80047EA0447C5F307241C5D47EA042714683D
:103BD8007C40CBF80040040E1F5DF4B21C5D44EA43
:103BE8000767C5F307441C5D47EA0447C8F3072481
:103BF8001C5D47EA042754687C40CBF804402C0E2F
:103C0800EDB21F5DC4B2C0F307201C5D44EA07672C
:103C1800C8F307444FEA18681C5D47EA0447C6F32F
:103C28000724C6F307461C5D47EA042794687C40CE
:103C3800CBF8084013F808705C5D9D5D1B5CD2688A
:103C480044EA076444EA054444EA03235340CBF8B2
:103C58000C3003B0BDE8F08F08300240003002405D
:103C680038F50008C4FF00082DE9F04F8DB00DF1BC
:103C7800200904468B4617464846002110229846DC
:103C8800179E0AF05AFE00230393002C00F0AC8123
:103C9800BBF1000F00F0A881B8F1000F00F0A4817B
:103CA8001699002900F0A081237913F0060540F049
:103CB8009E8143F010032371C94B01221A601B68CF
:103CC8000393C84B1A680392039A013240F0DD80CF
:103CD800039A1A601B680393039B002B40F08B80A8
:103CE8001D4605F10F03BB4280F2D78000230BEB82
:103CF80005020DF1100AD258012E12BA43F80A2013
:103D080004D1E118896B4A4049F803200433102B89
:103D1800EDD1012E06D1484604F59C7104F1380214
:103D2800FFF7E4FD636A04F11400494604F1480210
:103D3800FFF740FE236A0133236200235AF8031079
:103D480059F803204A4008EB050110BAC850E11899
:103D5800896B4A4049F803200433102BEED136B959
:103D6800484604F59C7104F13802FFF7BFFD103591
:103D7800B7E711680DF1100A09BA012E43F80A10C5
:103D880004D1E018806B014349F803100433102B69
:103D980002F10102EDD1012E06D1484604F59C71CD
:103DA80004F13802FFF7A2FD4946636A04F11400E2
:103DB80004F14802FFF7FEFD236A0133236208EB92
:103DC800050100235AF8030059F80320024310BAEA
:103DD80041F8010BE018806B024049F803200433D6
:103DE800102BEFD136B9484604F59C7104F138021E
:103DF800FFF77CFD103505F10F03BB424DDA0BEBE5
:103E080005020023B5E711680DF1100A09BA012E61
:103E180043F80A1004D1E018806B014349F80310F5
:103E28000433102B02F10102EDD1012E06D14846D0
:103E380004F59C7104F13802FFF758FD4946636A9E
:103E480004F1140004F14802FFF7B4FD236A0133BA
:103E5800236208EB050100235AF8030059F80320F0
:103E6800024310BA41F8010BE018806B024049F890
:103E780003200433102BEFD136B9484604F59C7162
:103E880004F13802FFF732FD103505F10F03BB428C
:103E980003DA0BEB05020023B5E7BD4280F29980F7
:103EA800237943F004034946237104F1140004F113
:103EB8004802636AFFF77EFD4FF00409C5EB070C63
:103EC80000219CFBF9F90091009B4B4527DA0BEB8D
:103ED80005020DF1200A525851F80A0092FA82FEA2
:103EE8008EEA000041F80A0004AA08EB050A03BAA2
:103EF8004AF8013041F802E004EB010A16B9DAF891
:103F080038E001E0DAF83800DDF800A08EEA0000B9
:103F18000AF1010A8850CDF800A00431D4E729EA53
:103F2800E9794FEA89020CA909F10E03114454F802
:103F3800233041F8203CACEB890CCDF804C002EBEF
:103F4800050E002301998B422BDA0BEB0E01D800EA
:103F580011F803C00CA901EB8905C0F1180055F848
:103F6800201C0CFA00FA8AEA010A45F820AC46B986
:103F780055F8101CC140C9B2814081EA0A0145F8D0
:103F8800201C0DF1300A0AEB890508EB0E0155F8E3
:103F9800105C25FA00F080EA0C0C01F803C001332C
:103FA800D0E704ABA01809F101091A440023B9F1BC
:103FB800030F03F1040305DCC11809F10109896B3A
:103FC800D150F4E704A804F59C7104F13802FFF716
:103FD8008DFC636B16993B44636300200F6008E017
:103FE80008300240003002404FF4426001E040F6E1
:103FF8001E400DB0BDE8F08F2DE9F04188B00446B1
:104008000E4617466846002110221D460AF095FC08
:10401800002C00F0A08016B9002D00F09C80002F25
:1040280000F09980E36A013B0F2B00F29180A36AAC
:1040380013B9012D00F08C802379226B43F0020321
:104048002371E36B83EAC203E363626B636C0DF174
:10405800100883EAC203636404F1380004F59C7114
:104068004246FFF743FC0123236204F1140069462A
:1040780004F14802636AFFF79DFC00205DF80030F8
:1040880058F8002053404DF8003004301028F5D17E
:1040980045B1012D5FD1E06A0421002390FBF1F1C5
:1040A8001A4628E02B46E26A042192FBF1F2934279
:1040B8004FEA830106DA5DF8232012BA46F8232076
:1040C8000133F0E76FF0030253430020E26AD5188A
:1040D800A8420DDA0DF1200C8C44C5005CF820CC08
:1040E8007218C5F118052CFA05F515540130EDE7DD
:1040F8003A60002031E08A4209DAA56A55F8226060
:104108005DF8225036BA75402B430132F3E721EAB5
:10411800E171A0EB810000228900824211DA08AD2A
:104128000D44D70055F8205CC7F1180725FA07F7A2
:10413800A56A0D44AE5C87EA0605EDB22B43013251
:10414800EBE7002B40F2EB3018BF4FF47B7004E034
:1041580040F61F4001E04FF4426008B0BDE8F0812E
:1041680002690B2A03460ADDC2F10F024FF0FF3045
:10417800D20000FA02F2186A1040186201E0002228
:10418800026203F1140003F148025B6BFFF712BCF3
:104198002DE9F0431C46002385B081460F46236075
:1041A8006360A360E3604FEA12181D46454512D0CC
:1041B80007EB05120023D65831BAE6584E404DF8A1
:1041C80003600433102BF6D1684621464A46FFF7B0
:1041D800F1FB0135EAE705B0BDE8F08370B50446A8
:1041E80088B00D461646FFF771FB69462A4610232C
:1041F8002046FFF7DFFB2046FFF768FB1023204629
:1042080004A92A46FFF7D6FB0023F1585DF80320DE
:10421800E01804334A40102B0261F6D1002300AAAB
:10422800F1181A44096912694A40E2500433102B04
:10423800F5D108B070BD00002DE9F0410D46FCB085
:1042480080462F4905F11904174650A8B0220AF0F4
:104258004FFB14F00F062BBA18BFC6F110060C93CB
:104268002A464FF000530EA841460D9318BFA419D3
:104278000AF03EFB08AB2B4480221A760023B34297
:1042880006D008AA2A441A44002151760133F6E7D9
:104298000021102208A80AF050FB224650A808A9BD
:1042A8006B46FFF775FF9DF82330013322468DF8E2
:1042B800233050A804AB08A9FFF76AFF684624A971
:1042C8001022FDF765FC24AA04A839461023FFF73D
:1042D80071FB04AC3A4607F1100510685168234693
:1042E80003C30832AA421C46F7D104A8114610237A
:1042F80024AAFFF75FFB00207CB0BDE8F08100BF77
:104308001CEB00082DE9F041B8B00F46191E054610
:10431800DDF8F88012DD104604AAFFF78DFF0028AB
:1043280040F08D8005F110000CA91022FDF730FC3B
:1043380028460CA904AAFFF751FF04E004A80021AD
:1043480020220AF0FAFA3F4C05F110000CA91022BD
:1043580008EA0404FDF71CFC002C03DA013C64F0B5
:104368000F0401341026464515DC2846FFF7AEFA3F
:104378001023284669460CAAFFF71CFB00235DF8AA
:104388000320B9191944043312BA102B41F8102C20
:10439800F5D11036E7E75CB904AA28460CA9FFF75F
:1043A8001DFF2B6A5A1C48D001332B62002046E0BF
:1043B8002846FFF78BFA0CAA102328466946FFF710
:1043C800F9FA042294FBF2F20023934209DA5DF829
:1043D8002310B81900EB830009BA40F8101C013308
:1043E800F3E7A30722EAE272D6D0174B2340002B4B
:1043F80003DA013B63F003030133920038A8104449
:10440800C3F1040150F8E04CC90024FA01F1103E50
:1044180040F8E01C1644F8183044023B00F8011C30
:10442800002BB9DB38A8104450F8E01C090A40F802
:10443800E01CB819C154013BF2E741F2737038B07F
:10444800BDE8F0810F00008003000080F8B5154634
:104458000C46FFF79EFAEA100332520001259542F6
:104468006CDA54F8101F3648364BCEB20135865DEB
:1044780053F826700E0E865D53F8266086EA376676
:10448800C1F30747C1F30721C75D415C53F82770A3
:1044980053F8211086EA372686EA3141216061689F
:1044A800CEB2865D53F826700E0E865D53F82660F0
:1044B80086EA3766C1F30747C1F30721C75D415C48
:1044C80053F8277053F8211086EA372686EA3141D7
:1044D8006160A168CEB2865D53F826700E0E865DC7
:1044E80053F8266086EA3766C1F30747C1F3072108
:1044F800C75D415C53F8277053F8211086EA3726C8
:1045080086EA3141A160E168CEB2865D53F8267033
:104518000E0E865D53F8266086EA3766C1F30747B4
:10452800C1F30721C75D415C53F8277053F8213068
:1045380086EA372686EA3343E36090E7F8BD00BF92
:10454800C4FF000804F000082DE9F0470F460446B0
:10455800114600285ED0002F5CD01AB903F006027D
:10456800022A57D1626A22F00800102801D0202AB6
:104578004CD103F0060CBCF1020F03D020690138BE
:104588000F2843D82079E16020F00605BCF1020F1E
:10459800257103D110F0010526D031E00026D4F8AA
:1045A80010906661A661E66126624E45F2DA1B4DFF
:1045B80011F806A04FF00408354096FBF8F8002DD6
:1045C80004EB880803DA013D65F003050135C5F100
:1045D8000305ED000AFA05FAD8F8145045EA0A0A64
:1045E800C8F814A00136E0E713F0010FA7603846B9
:1045F80004F1280102D0BCF1060F04D1FFF7C9F974
:104608000020BDE8F087FFF721FFF9E740F61F40DB
:10461800BDE8F0874FF44260BDE8F08703000080F2
:10462800F8B50D4617461E46044600283BD000291B
:1046380039D0002A37D0426A102A01D0202A35D131
:104648002379E76023F00601DB072171A56004D414
:10465800A81804F58C71FFF79CF900217B586218A3
:1046680004311BBA10295361F8D104F11400014632
:1046780004F58C72636AFFF79DF9207910F0010741
:104688000FD146B1012E0ED1284604F12801626AE5
:10469800FFF7DCFE05E0284604F12801626AFFF70F
:1046A80078F90020F8BD4FF44260F8BD40F61F408D
:1046B800F8BD00002DE9F74F00250195A64D01260C
:1046C8002E602D680195A54D2E680196DB10019E80
:1046D80003F103094FEA491301368B4602EB030441
:1046E80017D1019E2E602D680195019ED2586768EA
:1046F8000368456856B982EA030C8368A268C068F3
:104708005A40E3686F4083EA00080BE087EA050C2B
:1047180005E066684568D258036886EA050C5A4081
:10472800904617468E4B203C4FEA1C60FDB253F86A
:1047380020602069704053F82560C8F3074580EA77
:10474800366053F8256080EA3626C2F307205FFA00
:1047580088FA53F8200053F82AA086EA3046380E23
:1047680009F1FF3953F8205060696840D5B2B9F1B2
:10477800000F53F8255080EA3560CCF3074553F80D
:10478800255080EA3520C8F307254FEA186853F802
:10479800255053F8288080EA35404FEA1265C2F365
:1047A800074253F82510A56953F8222081EA05012C
:1047B80081EA3A65C7F3074AE16953F82AA085EA0E
:1047C8003A25CCF3072A5FFA8CFC88EA010853F8EB
:1047D8002CC053F82AA0C7F3072788EA3C6888EA60
:1047E800322853F8272085EA3A4588EA32484FEAC2
:1047F80016625ADD53F822702268A1687A40C7B25F
:104808005FFA88FA53F8277053F82AA082EA3762C9
:10481800C8F3074753F8277082EA372CC5F30722F5
:1048280053F822208CEA324C020E53F82270626848
:104838007A40EFB253F8277082EA3762C6F3074727
:1048480053F8277082EA3727C8F307224FEA186817
:1048580053F8222053F8288087EA32472A0EC5F3F6
:10486800074553F8222053F825504A4082EA3A6215
:10487800C0F3074AE16853F82AA082EA3A22C6F34D
:10488800072AF6B2C0F3072053F8266053F82AA087
:1048980053F8203088EA010888EA366888EA35281B
:1048A80082EA3A4288EA33483CE72E4B9F5CC2B220
:1048B8009A5C42EA0767C8F307429A5C47EA0247EC
:1048C800C5F307229A5C47EA022722687A40CBF8A8
:1048D8000020020E9F5CEAB29A5C42EA0767C6F3C0
:1048E80007429A5C47EA0247C8F307229A5C47EAFC
:1048F800022762687A40CBF804202A0EC5F30745E0
:104908009F5C5D5D5FFA88F24FEA18689A5C42EA3C
:104918000767C0F30742C0F307209A5C47EA0247DB
:10492800C6F30722F6B29A5C47EA0227A2687A40E1
:10493800CBF8082013F808709A5D1B5C42EA0762FE
:1049480042EA054242EA0323E2685340CBF80C30BE
:1049580003B0BDE8F08F00BF0830024000300240CD
:1049680004F0000838FA00082DE9F04F9B46037957
:1049780091B013F0060F0446049192461A9E40F037
:10498800498112F00F0F1DBF43F00403A2F1200765
:10499800037117460025BD4239DA0023049A2A44D8
:1049A800E118D258496912BA4A40684603F1200111
:1049B8000433102B0A50F1D156B1012E40F02D814D
:1049C80008A8014604F12802636AFFF773FE06E0AF
:1049D80008A8014604F12802636AFEF7EBFF0023EA
:1049E800E2180DF1200C51695CF803204A400BEBEA
:1049F80005014CF8032012BACA500433102BEFD12A
:104A080004F114000146FDF7CFF91035C3E7554509
:104A180080F2068104F114070DF13008414638464A
:104A2800FDF7C2F9002E08BFB8460023DDF8109044
:104A3800A944684659F8032011BA58F803204A4097
:104A480003F120010433102B0A50EFD156B1012E87
:104A580040F0E38008A8014604F12802636AFFF7E2
:104A680029FE06E008A8014604F12802636AFEF759
:104A7800A1FF05F11002C2EB0A0ACDF81CA0079BA2
:104A880006924FF0040A93FBFAFA0023194651459F
:104A98001CDA09EB030003F12002006900BA059053
:104AA80068460131105858F8032082EA000C0BEBD5
:104AB800050018449CFA8CFCC0F810C06A4603F143
:104AC800200C05984CF802000433E0E72AEAEA7A59
:104AD800069A07984FEA8A010A44A0EB8A000191D6
:104AE8000390069241440023DDF80CC0634531DA97
:104AF800DDF818C0049ADDF81890624410A800EB9D
:104B08008A08D25C0868079258F8202C4FEAC30C30
:104B1800CCF1180C4240D944059222FA0CF209F85B
:104B280003206FF0FF0202FA0CF04FEAC3096FF09E
:104B38007F4242FA09F980EA0909079A58F8200CD5
:104B480002FA0CFC09EA000949EA0C0248F8202C90
:104B58000133C9E72CEAEC72C2F1030C4FEACC0C22
:104B6800032A13DC0B6810A800EB8A0823FA0CF957
:104B78005FFA89F958F8203C09FA0CF989EA030325
:104B880048F8203C0132ACF1080CE9E7019A0DF134
:104B980020080AF1010A90440023BAF1030F03F137
:104BA800040309DC58F80300CA5880EA020C48F8E4
:104BB80003C00AF1010AF0E706B90CAF00230DF1B2
:104BC800200CF9585CF803204A404CF803200433C1
:104BD800102BF4D14EB1012E1FD108A8014604F1C3
:104BE8002802636AFFF766FD06E008A8014604F19B
:104BF8002802636AFEF7DEFE002308A8F958C258A7
:104C08004A400BEB0501C25012BACA500433102BAC
:104C1800F3D105E040F61E4003E04FF4426000E0A7
:104C2800002011B0BDE8F08F0223FFF78DBC2DE9FD
:104C3800F04F85B089469A46DDF83880074688B334
:104C480081B37BB3B8F1000F2CD0002A2DDB12F012
:104C58000F042AD103799B072AD422F00F0B25468B
:104C68005D451CD0002609EB05039B591BBA4DF87E
:104C780006300436102EF6D16846694607F1280238
:104C88007B6AFEF797FE00265DF806300AEB050200
:104C98001BBA93510436102EF6D11035E0E7C8F848
:104CA800005007E04FF4426404E040F61D4401E080
:104CB80040F61E44204605B0BDE8F08F38B132B149
:104CC800037943F0020303710020106070474FF42A
:104CD800426070470323FFF737BC2DE9FF470C9F5D
:104CE80088469946064680B379B373B36FB3002AF2
:104CF8002EDB13072CD1037903F0020303F0FF0422
:104D08004BBB22F00F0A54451CD0002508EB0403C6
:104D18005B591BBA4DF805300435102DF6D168469D
:104D2800694606F12802736AFFF7C4FC00255DF89E
:104D3800053009EB04021BBA53510435102DF6D186
:104D48001034E0E73C60002007E04FF4426004E0E4
:104D580040F61D4001E040F61E4004B0BDE8F08773
:104D680038B132B1037943F00203037100201060B7
:104D780070474FF4426070470423FFF7E5BB2DE905
:104D8800F04F884687B016461F460446002800F0B4
:104D9800B880002900F0B580002B00F0B280109890
:104DA800002800F0AE800F2A40F3AE80237913F07C
:104DB800060F40F0AC8032071DBF43F00403A6F194
:104DC80010092371B14600254D4522DA002308EB6E
:104DD8000502E118D258496912BA4A4003F1080A93
:104DE80069460433102B4AF80120F0D1636A02A8FF
:104DF80004F1140104F12802FEF7DCFD0023E21897
:104E080051697A1909BAD1500433102BF7D11035EA
:104E1800DAE7B54203DB10980660002079E0C5EBBD
:104E2800060B042100239BFBF1F11A468A4215DA8E
:104E380008EB050003F1080AC05890FA80FEE01854
:104E4800E94640698EEA000E4AF809E007EB050ECC
:104E580000BA4EF8030001320433E7E721EAE171B2
:104E68008B0004EB030E06A81844DEF8142040F863
:104E7800102CABEB810B03EB050C00225A451EDA14
:104E880006A808EB0C0A00EB81001AF802A00190B2
:104E98004FEAC20950F8100CC9F118090AFA09FAC0
:104EA8008AEA000A019840F810ACDEF8140007EB13
:104EB8000C0A20FA09F00AF802000132DEE702AA19
:104EC800134401310022032902F1040205DC0EEB30
:104ED8000200013140699850F5E7636A02A804F1BD
:104EE800140104F12802FEF765FD0023E218516958
:104EF8007A191A44043309BA102B42F8101CF5D158
:104F080089E74FF4426004E040F61D4001E040F6B6
:104F18001E4007B0BDE8F08F38B132B1037943F0D5
:104F2800020303710020106070474FF4426070471D
:104F38000523FFF709BB2DE9F04F8DB00DF1200ACD
:104F48000546884616465046002110221F4609F09D
:104F5800F4FC002D00F0F680B8F1000F00F0F280AC
:104F6800002F00F0EF801698002800F0EB800F2E3D
:104F780040F3EB802B7913F0060F40F0E9803207FD
:104F88001DBF43F00403A6F120092B71B14600248C
:104F98004C4528DA002308EB040203F1100BD25821
:104FA8006946043312BA102B4BF80120F3D16B6A0F
:104FB80004A8514605F12802FFF77CFB0023E918F5
:104FC8005AF8032048690DF1100C42405CF80300C0
:104FD800486139194AF8032012BACA500433102B11
:104FE800EDD11034D4E7B44203DB169806600020F4
:104FF800B0E0002308EB040903F1100B59F8032073
:105008006946043312BA102B4BF80120F2D105F18E
:10501800280C624651466B6ACDF80CC004A8FFF70D
:1050280049FB04F1100CCCEB060E04219EFBF1F1B8
:10503800002302911A46DDF808A0524518DA09EB58
:10504800030003F1100A0069694600BA4AF8010032
:105058000DF1200A013253F80A10484043F80A00BB
:1050680090FA80FB381918440433C0F810B0E2E70E
:105078002AEAEA718B000CA8184400229C4440F8E4
:10508800202CAEEB810BCDF804C05A4520DA0198EC
:1050980040444FEAC20A10F802900DF1300C0CEBB4
:1050A800810ECAF1180A09FA0AF084465EF8200C43
:1050B8008CEA00004EF8200C01985EF810EC384499
:1050C8002EFA0AFA8AEA090A00F802A00132DCE795
:1050D8000CAA1A442BEAEB7E4FF0FF304FEACE0EB3
:1050E80020FA0EFE52F8100C0EEA000E52F8200CB0
:1050F8008EEA000042F8200C0DF1200804A808EB05
:10510800030E013103440022032902F1040204DCE6
:105118005EF8020098500131F6E76B6A039A04A81A
:105128004146FFF7C7FA0023EA18516958F80320E7
:105138004A40391948F8032012BACA500433102BD0
:10514800F2D152E74FF4426004E040F61D4001E01E
:1051580040F61E400DB0BDE8F08F38B132B103798A
:1051680043F0020303710020106070474FF442605F
:1051780070470623FFF7E8B92DE9F04F8BB006AE6C
:105188000546884617463046002110229946DDF824
:1051980050A009F0D2FB00230193002D00F0D98024
:1051A800B8F1000F00F0D580B9F1000F00F0D18000
:1051B800BAF1000F00F0CD802B7913F0060F40F004
:1051C800CB803A071CBF43F004032B71654B0122C7
:1051D8001A601B680193644B1A680192019A0132A4
:1051E80001D000245EE0019A1A601B680193019CBB
:1051F8002CB3002435E008EB04020DF1080BD2585B
:1052080012BA43F80B200433102BF4D16B6A05F162
:105218001400314605F12802FEF7CCFB2B6A013356
:105228002B6200235BF80310F2584A4009EB040193
:10523800F25012BACA500433102BF3D1103404F1CF
:105248000F03BB4243DA0023D5E702AA9958F25864
:105258000A43F2500433102B12BAF6D149F804204D
:10526800103404F10F03BB4231DA58F804301BBA8A
:10527800029305F114006B6A314605F12802FEF726
:1052880099FB2B6A01332B620023DEE702AA9958A7
:10529800F2580A43F2500433102B12BAF6D149F8E7
:1052A8000420103404F10F03BB4210DA58F804301C
:1052B8001BBA029305F114006B6A314605F1280206
:1052C800FEF778FB2B6A01332B620023DEE7BC4232
:1052D80003DBCAF80070002040E005F128026B6A81
:1052E80005F114003146FEF765FB0425391B002241
:1052F80091FBF5F51346AB4210DA08EB04000133D5
:10530800805890FA80FCB0588CEA000009EB040C35
:10531800B05000BA4CF802000432ECE725EAE57216
:10532800A1EB82019200144400238B42D1DA0AAE29
:105338001644DD0056F8106CC5F1180526FA05F577
:1053480008EB040609EB0400F65C7540C55401330C
:10535800EBE74FF4426001E040F61E400BB0BDE8B9
:10536800F08F00BF083002400030024038B132B13F
:10537800037943F0020303710020106070474FF473
:10538800426070470623FFF7DFB8FFF7F5BEFFF767
:10539800EDBF2DE9F043134685B00446002800F020
:1053A800D980002900F0D680002A00F0D38000229E
:1053B80002634263C26AC360013A0F2A00F2CD80D9
:1053C80002690C2A40F0C980426A22F008001028BD
:1053D80002D0202A40F0C180207920F016052571DE
:1053E8001D682DBA65615D682DBAA5619B681BBAF9
:1053F800E36100232362C30705D4A160084604F1D2
:105408004801FEF7C6FA237913F0010340F09A80A9
:105418000093019302930393694604F14802636A77
:105428006846FEF7C7FA009BC4F8B831019BC4F878
:10543800BC31029BC4F8C031039BC4F8C4310321BA
:105448000422500100F59C7023184FEA021ED3F87D
:105458000CC09E680EF59C7E04EB0E054FEA5C07B7
:1054680047EAC676EE609F685E687F0847EAC676B8
:10547800AE605B6826585B0843EAC6766E604FF0FC
:1054880061430CF0010C03FB0CFC235801398CEA36
:10549800530344F80E304FEA6202D2D103250226A4
:1054A80004F5A4774FEA06194FF0010809F59C7036
:1054B800394607EB0902204408F10108FCF722FCF1
:1054C800B04507F11007F1DB013D4FEA4606E7D189
:1054D80004F59C78C4F83851C4F83C51C4F84051DC
:1054E800C4F8445110264546284605F58061FCF766
:1054F8003BFC013E05F11005F6D14FF00309464685
:10550800002706F5807530462946FCF70DFC28462D
:105518002946FCF709FC28462946FCF705FC2846DD
:105528002946FCF701FC013706F5A0612846FCF77F
:105538001BFC102F06F11006E3D1B9F1010908F59B
:105548008078DCD100200223A063E06320646064DB
:10555800236204E04FF4426001E040F61F4005B0CA
:10556800BDE8F0832DE9F0430F4685B016460446A2
:1055780000287ED000297CD0057915F012057BD152
:1055880005F10F03B34214DA00237A19E118D2584F
:10559800896B12BA4A404DF803200433102BF4D11A
:1055A800684604F59C7104F13802FEF79FF910353E
:1055B800E6E7B54258DA237943F010032371701BEC
:1055C8000422002390FBF2F21946914210DA07EB0D
:1055D800050E04EB030C5EF803E0DCF838C09EFA15
:1055E8008EFE8EEA0C0E4DF803E001310433ECE731
:1055F80022EAE27293000DF1100E02F10E019E44B0
:1056080054F821104EF8101C05EB0309A0EB820E8C
:105618000020704513DA07EB090C04A919441CF89B
:10562800008051F8105C4FEAC00CCCF1180C08FA55
:105638000CFC8CEA050C41F810CC0130E9E7511C50
:1056480000AAE51813440022032902F1040204DC2D
:10565800A8180131806B9850F6E7684604F59C71EC
:1056680004F13802FEF742F9236B1E44266300203A
:1056780004E04FF4426001E040F61E4005B0BDE88A
:10568800F08313B5049C009400240194FEF7ECFA0F
:1056980002B010BD0023FEF7AFBCFFF77ABE13B50A
:1056A800049C009401240194FEF7DEFA02B010BDB8
:1056B80000210123FEF7A0BCF0B585B004460E46D4
:1056C800174668460021102209F037F9002C00F02F
:1056D800D080002E00F0CD80002F00F0CA80E56B4E
:1056E8002B1F0C2B00F2C88015F0010540F0C48078
:1056F8002369073B062B00F2BF80636B23F0080287
:10570800102A02D0202B40F0B7802279E76022F0DF
:105718001601D207217106D4A660304604F148016B
:105728001A46FEF736F9216994F83C20C1F10E03B8
:10573800023A03F00703C2F3420243EAC202236CAF
:105748000BB142F04002E36858781E78000240EA44
:1057580006409E78304340EA026200921A79D8786F
:10576800120442EA006298790243587942EA002218
:10577800019207228A4216DAD61F042096FBF0F01F
:10578800C2F1060704AE023006EB800007F00307FB
:105798009E5CFF0006FA07F750F8106C3E4340F88D
:1057A800106C0132E6E7039A636C1343039368466F
:1057B80004F1240104F14802636BFEF7FBF8E36887
:1057C800216958781A789E78000240EA0240C1F1AF
:1057D8000E02304302F0070240EA026262611A795F
:1057E800D878120442EA006298790243587942EA6A
:1057F8000022A2610022E261226207228A4213DAB1
:10580800D61F042096FBF0F0C2F1060702309E5C1A
:1058180004EB800007F00307FF0006FA07F7466964
:105828003E4346610132E9E7236A43F001032362FC
:10583800236C00221BB3B3F57F4FC4F83821C4F89A
:105848003C21C4F84021C4F844214FEA034203DA5A
:10585800C4F83821022309E01B0C6FEAC3336FEA4E
:10586800D333C4F83831C4F83C210623C4F848318E
:1058780006E04FF4426503E040F61F4500E01D4690
:10588800284605B0F0BD2DE9F0478846164604467F
:10589800002800F0BE80002900F0BB80037913F0D7
:1058A800120340F0B9800AB90025B7E0026CD0F8BD
:1058B8004811921B026472185818102A28BF102227
:1058C80090421D464FF0040A13DACD43ED1A90FBBF
:1058D800FAF018F8032004EB800005F00305ED004A
:1058E80002FA05F5D0F838212A43C0F838210133E7
:1058F800E1E72346596AD3F83821BAF1010A81EA67
:1059080002025A6203F10403F4D104F1240704F1FA
:105918004809384639464A46636BFEF74BF8C4F8DF
:1059280048A105F10F03B34213DA002308EB05027F
:10593800D058E21800BA516A04334140102B516222
:10594800F4D1384639464A46636BFEF733F81035CA
:10595800E7E7B542A8DA2379C5EB060C43F0100354
:10596800042223719CFBF2F2002393420ADA08EB2B
:10597800050151F8230004EB830100BAC1F838018E
:105988000133F2E722EAE272910066180023C6F8B2
:105998003831ACEB820C0D44634510DA08EB050096
:1059A8004FEAC30AC05CCAF1180A00FA0AFAD6F824
:1059B800380140EA0A00C6F838010133ECE7BCF1C7
:1059C800000FA8BF6144531C4E32C4F8481104EBC1
:1059D8008202032B04DC002142F8041F0133F8E79C
:1059E800256C002D7FF460AF23460422D3F83801DC
:1059F800596A013A80EA0101C3F8381103F1040336
:105A0800F4D104F59C7039464A46636BFDF7D2FF22
:105A180004E04FF4426501E040F61E452846BDE823
:105A2800F08700002DE9F04F8DB008AE04468A4695
:105A38009046304600211022994608F07EFF002348
:105A48000393002C00F06B81BAF1000F00F067811E
:105A5800B9F1000F00F063811698002800F05F810B
:105A6800257915F0060540F05D81B14B01221A60D9
:105A78001B680393AF4B1A680392039A013240F0F4
:105A88009D80039A1A601B680393039B002B61D1C6
:105A98001D4605F10F03434580F2968000230AEB6B
:105AA800050204AFD158E21809BA506AD951043333
:105AB8004140102B5162F2D104F1240004F1480B4B
:105AC80001465A46636BFDF775FF636B04F11400DA
